:020000040800F2
:1000000000500020F51A00089119000897190008FF
:100010009D190008A3190008A91900080000000094
:10002000000000000000000000000000AF19000800
:10003000BB19000800000000C7190008D519000806
:100040003D1B00083D1B00083D1B00083D1B000830
:100050003D1B00083D1B00083D1B0008F11900086E
:10006000151A00083D1B00083D1B00083D1B000839
:100070003D1B00083D1B00083D1B00083D1B000800
:100080003D1B00083D1B00083D1B00083D1B0008F0
:100090003D1B00083D1B00083D1B0008391A0008E5
:1000A0003D1B00083D1B00083D1B00083D1B0008D0
:1000B0003D1B00083D1B00083D1B00083D1B0008C0
:1000C0003D1B00083D1B00083D1B00083D1B0008B0
:1000D0003D1B00083D1B00083D1B00083D1B0008A0
:1000E0003D1B00083D1B00083D1B000800000000F0
:1000F0000000000000000000000000000000000000
:0C01000000000000000000005FF808F1A3
:10010C000348044B834202D0034B03B1184770479A
:10011C000C0000200C0000200000000005480649DF
:10012C000B1AD90F01EBA301491002D0034B03B1F9
:10013C00184770470C0000200C0000200000000045
:10014C0010B5064C237843B9FFF7DAFF044B13B113
:10015C000448AFF300800123237010BD0C00002075
:10016C0000000000041E000808B5044B1BB1044934
:10017C000448AFF30080BDE80840CFE70000000062
:10018C0010000020041E000880F0004002E000BFB8
:10019C0081F0004142001FBF5FEA410392EA030F66
:1001AC007FEA226C7FEA236C6AD04FEA1262D2EBB0
:1001BC001363C1BFD218414048404140B8BF5B42B5
:1001CC00192B88BF704710F0004F40F4000020F04E
:1001DC007F4018BF404211F0004F41F4000121F064
:1001EC007F4118BF494292EA030F3FD0A2F10102AE
:1001FC0041FA03FC10EB0C00C3F1200301FA03F1EC
:10020C0000F0004302D5494260EB4000B0F5000F0E
:10021C0013D3B0F1807F06D340084FEA310102F1CD
:10022C000102FE2A51D2B1F1004F40EBC25008BF7F
:10023C0020F0010040EA03007047490040EB000049
:10024C00013A28BFB0F5000FEDD2B0FA80FCACF14A
:10025C00080CB2EB0C0200FA0CF0AABF00EBC25077
:10026C0052421843BCBFD0401843704792F0000F65
:10027C0081F4000106BF80F400000132013BB5E7B8
:10028C004FEA41037FEA226C18BF7FEA236C21D02E
:10029C0092EA030F04D092F0000F08BF0846704793
:1002AC0090EA010F1CBF0020704712F07F4F04D161
:1002BC00400028BF40F00040704712F100723CBF74
:1002CC0000F50000704700F0004343F0FE4040F49E
:1002DC00000070477FEA226216BF08467FEA23635C
:1002EC000146420206BF5FEA412390EA010F40F447
:1002FC00800070474FF0000304E000BF10F0004393
:10030C0048BF40425FEA000C08BF704743F0964379
:10031C0001464FF000001CE050EA010208BF704794
:10032C004FF000030AE000BF50EA010208BF70471B
:10033C0011F0004302D5404261EB41015FEA010C30
:10034C0002BF84460146002043F0B64308BFA3F128
:10035C008053A3F50003BCFA8CF2083AA3EBC2530A
:10036C0010DB01FA02FC634400FA02FCC2F1200229
:10037C00BCF1004F20FA02F243EB020008BF20F060
:10038C000100704702F1200201FA02FCC2F12002C6
:10039C0050EA4C0021FA02F243EB020008BF20EABB
:1003AC00DC7070474FF0FF0C1CEAD0521EBF1CEAE9
:1003BC00D15392EA0C0F93EA0C0F6FD01A4480EAD7
:1003CC00010C400218BF5FEA41211ED04FF00063C0
:1003DC0043EA501043EA5111A0FB01310CF00040EC
:1003EC00B1F5000F3EBF490041EAD3715B0040EA12
:1003FC00010062F17F02FD2A1DD8B3F1004F40EBE2
:10040C00C25008BF20F00100704790F0000F0CF0B4
:10041C00004C08BF49024CEA502040EA51207F3A78
:10042C00C2BFD2F1FF0340EAC250704740F4000053
:10043C004FF00003013A5DDC12F1190FDCBF00F044
:10044C0000407047C2F10002410021FA02F1C2F1F2
:10045C00200200FA02FC5FEA310040F1000053EA8E
:10046C004C0308BF20EADC70704792F0000F00F0DC
:10047C00004C02BF400010F4000F013AF9D040EAE2
:10048C000C0093F0000F01F0004C02BF490011F476
:10049C00000F013BF9D041EA0C018FE70CEAD15374
:1004AC0092EA0C0F18BF93EA0C0F0AD030F0004CF4
:1004BC0018BF31F0004CD8D180EA010000F00040A8
:1004CC00704790F0000F17BF90F0004F084691F066
:1004DC00000F91F0004F14D092EA0C0F01D14202A0
:1004EC000FD193EA0C0F03D14B0218BF084608D169
:1004FC0080EA010000F0004040F0FE4040F40000B3
:10050C00704740F0FE4040F4400070474FF0FF0C45
:10051C001CEAD0521EBF1CEAD15392EA0C0F93EA8C
:10052C000C0F69D0A2EB030280EA010C49024FEADE
:10053C00402037D04FF0805343EA111143EA101397
:10054C000CF000408B4238BF5B0042F17D024FF44F
:10055C00000C8B4224BF5B1A40EA0C00B3EB510F2A
:10056C0024BFA3EB510340EA5C00B3EB910F24BF13
:10057C00A3EB910340EA9C00B3EBD10F24BFA3EB98
:10058C00D10340EADC001B0118BF5FEA1C1CE0D160
:10059C00FD2A3FF650AF8B4240EBC25008BF20F013
:1005AC00010070470CF0004C4CEA50207F32C2BF67
:1005BC00D2F1FF0340EAC250704740F400004FF004
:1005CC000003013A37E792F0000F00F0004C02BF35
:1005DC00400010F4000F013AF9D040EA0C0093F0FF
:1005EC00000F01F0004C02BF490011F4000F013B59
:1005FC00F9D041EA0C0195E70CEAD15392EA0C0FC1
:10060C0008D142027FF47DAF93EA0C0F7FF470AFF8
:10061C00084676E793EA0C0F04D14B023FF44CAF3B
:10062C0008466EE730F0004C18BF31F0004CCAD1D0
:10063C0030F000427FF45CAF31F000437FF43CAF0C
:10064C005FE700BF4FF0FF3C06E000BF4FF0010C2E
:10065C0002E000BF4FF0010C4DF804CD4FEA400210
:10066C004FEA41037FEA226C18BF7FEA236C11D05A
:10067C0001B052EA530C18BF90EA010F58BFB2EB0D
:10068C00030088BFC81738BF6FEAE17018BF40F08D
:10069C00010070477FEA226C02D15FEA402C05D141
:1006AC007FEA236CE4D15FEA412CE1D05DF8040BC6
:1006BC00704700BF844608466146FFE70FB5FFF759
:1006CC00C9FF002848BF10F1000F0FBD4DF808ED11
:1006DC00FFF7F4FF0CBF012000205DF808FB00BF02
:1006EC004DF808EDFFF7EAFF34BF012000205DF85C
:1006FC0008FB00BF4DF808EDFFF7E0FF94BF0120A9
:10070C0000205DF808FB00BF4DF808EDFFF7D2FFA5
:10071C0094BF012000205DF808FB00BF4DF808EDE8
:10072C00FFF7C8FF34BF012000205DF808FB00BFB5
:10073C004FEA4002B2F1FE4F0FD34FF09E03B3EBE2
:10074C0012620DD94FEA002343F0004310F0004F22
:10075C0023FA02F018BF404270474FF00000704778
:10076C0012F1610F01D1420205D110F0004008BF17
:10077C006FF0004070474FF00000704770B50D4EA1
:10078C000D4D761BB61006D0002455F8043B0134F1
:10079C009847A642F9D1094E094D01F02DFB761B65
:1007AC00B61006D0002455F8043B01349847A642F5
:1007BC00F9D170BD1C1E00081C1E0008201E00086C
:1007CC001C1E000880B584B000AF01F0B3F900F036
:1007DC004DF800F09FF800F07DFF0023FB600BE06C
:1007EC001E4BDB681D4A83F40053D360642000F079
:1007FC00AFF8FB680133FB60FB68092BF0DD00F000
:10080C00C9FF164BDB68154A43F40053D3604FF411
:10081C00FA7000F09DF8114BDB68104A23F400537A
:10082C00D3600F4B7B60786800F0D8FF0D4B3B60BA
:10083C000D4B1B68BB600C4B1A68BB68D31A092B99
:10084C00F9D9094B1B68BB60386800F0F1FF034B0A
:10085C00DB68024A83F40053D360ECE700100140DC
:10086C000000FA430AD7233C2800002080B400AFD4
:10087C00264B1B68254A43F48033136000BF234B7F
:10088C001B6803F40033002BF9D0214B1B6823F0B9
:10089C0007031F4A43F0040313601D4B1B681C4ADB
:1008AC0043F010031360194B5B6823F47F5323F060
:1008BC003003164A43F480635360144B5B6823F493
:1008CC007413124A43F4E8135360104B1B680F4A1D
:1008DC0043F08073136000BF0C4B1B6803F0007374
:1008EC00002BF9D0094B5B6823F00303074A43F054
:1008FC000203536000BF054B5B6803F00C03082B2D
:10090C00F9D100BF00BFBD4680BC7047001002404B
:10091C000020024080B400AF0B4B9B690A4A43F0A5
:10092C0010039361094B5B6823F47003074A43F48B
:10093C0000135360054BDB68044A43F40053D36047
:10094C0000BFBD4680BC7047001002400010014043
:10095C0080B485B000AF7860084B1B68FB6000BFAB
:10096C00064B1A68FB68D31A7A689A42F8D800BF0B
:10097C0000BF1437BD4680BC704700BF2800002064
:10098C0080B584B000AFF860B9607A60B968F86877
:10099C00FFF7A6FE0346002B01D0BB6809E079687F
:1009AC00F868FFF7BBFE0346002B01D07B6800E024
:1009BC00FB6818461037BD4680BD80B584B000AFCB
:1009CC00F860B9607A603B60FB68BA681A60FB68D3
:1009DC007A685A60FB683A689A60FB684FF00002CC
:1009EC00DA60FB684FF000021A614FF07C51F86935
:1009FC00FFF7D8FC03461A46FB685A61FB68BA69D4
:100A0C009A61FB68FA69DA6100BF1037BD4680BD98
:100A1C0090B58BB000AFF860B9607A603B604FF076
:100A2C0000013868FFF766FE0346002B02D04FF03A
:100A3C0000039BE07968B868FFF7AAFB03467B626A
:100A4C00FB681B681946786AFFF7ACFC03463B62EF
:100A5C00FB68DC68FB685B68796A1846FFF7A2FCE8
:100A6C00034639681846FFF79DFC03461946204695
:100A7C00FFF790FB03461A46FB68DA60FB68D86800
:100A8C00FB685B6983F00041FB685B691A46FFF702
:100A9C0077FF0246FB68DA60FB68DB68FB61FB688A
:100AAC001B6919467868FFF773FB034639681846CB
:100ABC00FFF72CFD0346BB61FB689B6883F000438A
:100ACC001946B869FFF76EFC03467B61FB687A68D0
:100ADC001A61F969386AFFF75DFB034619467869B4
:100AEC00FFF758FB03463B61FB689969FB68DB69C0
:100AFC001A463869FFF744FF3861FB68DB69194611
:100B0C003869FFF701FE0346002B07D04FF00001B8
:100B1C00786AFFF703FE0346002B10D1FB689B6934
:100B2C0019463869FFF7E6FD0346002B1DD04FF040
:100B3C000001786AFFF7D4FD0346002B15D0FB6843
:100B4C00DC68FB685B68796A1846FFF72BFC034688
:100B5C0039681846FFF726FC034619462046FFF76E
:100B6C0017FB03461A46FB68DA603B6918462C37BC
:100B7C00BD4690BD80B483B000AF78607B684FF009
:100B8C000002DA607B684FF000021A6100BF0C377C
:100B9C00BD4680BC704780B582B000AF78603960CC
:100BAC007B683A685A617B68D8683B6883F000437D
:100BBC003A681946FFF7E4FE02467B68DA6000BF2C
:100BCC000837BD4680BD000080B400AF1B4B9B694D
:100BDC001A4A43F008039361184B9B69174A43F078
:100BEC0001039361154BDB69144A43F40013D36181
:100BFC00134B1B68124A43F07F431360114B1B6865
:100C0C00104A43F4004313600E4B1B680D4A23F447
:100C1C00004313600B4B24225A600A4BB422DA6156
:100C2C00084B25221A62074B1B68064A43F0010346
:100C3C00136000BFBD4680BC704700BF001002406F
:100C4C00000C01400054004080B400AF084B1B68FE
:100C5C00074A43F48073136000BF054B5B6903F0D4
:100C6C000103002BF9D000BF00BFBD4680BC70470C
:100C7C000054004080B400AF044B1B68034A43F49B
:100C8C000073136000BFBD4680BC70470054004029
:100C9C0080B483B000AF03460A46FB711346BB71A8
:100CAC00FB795B00BA79002A14BF01220022D2B270
:100CBC001A43084B1A6100BF064B5B6903F0020331
:100CCC00002BF9D0034B9B6900BF0C37BD4680BC91
:100CDC00704700BF0054004080B483B000AF03469F
:100CEC00FB71084AFB79136100BF064B5B6903F08B
:100CFC008003002BF9D000BF00BF0C37BD4680BC71
:100D0C00704700BF0054004080B400AF094B1B6813
:100D1C00084A43F48063136000BF064B5B6903F021
:100D2C004003002BF9D0034B1B69DBB21846BD46C0
:100D3C0080BC70470054004080B500AF094B1B6865
:100D4C00084A23F480631360FFF794FF00BF054B40
:100D5C005B6903F04003002BF9D0024B1B69DBB23B
:100D6C00184680BD0054004080B582B000AF0346E9
:100D7C000A46FB711346BB71FFF766FF0021682022
:100D8C00FFF786FFFB791846FFF7A6FFBB791846DD
:100D9C00FFF7A2FFFFF76EFF00BF0837BD4680BD0F
:100DAC0080B584B000AF0346FB71FFF74DFF002107
:100DBC006820FFF76DFFFB791846FFF78DFFFFF7F3
:100DCC0043FF01216820FFF763FFFFF7B5FF0346E0
:100DDC00FB73FB7B18461037BD4680BD80B584B0D5
:100DEC0000AF0346FB71FFF72FFF00216820FFF7D0
:100DFC004FFFFB791846FFF76FFFFFF725FF012127
:100E0C006820FFF745FFFFF77FFF0346FB73FFF7F3
:100E1C0093FF0346BB73FB7B1B021AB2BB7B1BB25B
:100E2C001343BB81B7F90C3018461037BD4680BD53
:100E3C0080B582B000AFFFF7C7FE7520FFF7B0FF9B
:100E4C000346FB71FB79682B02D04FF0FF3328E08F
:100E5C0000216B20FFF788FF09211920FFF784FF81
:100E6C0003211A20FFF780FF00211B20FFF77CFFD6
:100E7C0000211C20FFF778FF0C4B4FF000021A608A
:100E8C000A4B4FF000025A60084B4FF000029A6078
:100E9C00064B4FF00002DA60044B4FF000021A616F
:100EAC00002318460837BD4680BD00BF2C0000202B
:100EBC0080B586B000AF4FF000037B616423FB600C
:100ECC0000233B6123E04720FFF788FF03467B812B
:100EDC00B7F90A301846FFF711FA034616491846B7
:100EEC00FFF714FB034619467869FFF753F90346DD
:100EFC007B6100237B6002E07B6801337B607B6855
:100F0C0042F20F729342F7DD3B6901333B613A6960
:100F1C00FB689A42D7DBF868FFF7F0F903461946ED
:100F2C007869FFF7F3FA03461A46044B1A6100BFBF
:100F3C001837BD4680BD00BF000003432C000020C5
:100F4C0090B585B000AF78604720FFF747FF0346A8
:100F5C00FB81B7F90E301846FFF7D0F90346274945
:100F6C001846FFF7D3FA03461A46254B1B69194658
:100F7C001046FFF70DF903461A46214B9A60204B99
:100F8C00DC681F4B9B6879681846FFF70BFA034621
:100F9C0019462046FFF7FEF803461A46184BDA604E
:100FAC0009E0174BDB6817491846FFF7F1F80346C1
:100FBC001A46134BDA60124BDB6813491846FFF7DD
:100FCC00ADFB0346002BECD109E00D4BDB680D4962
:100FDC001846FFF7DFF803461A46094BDA60084B50
:100FEC00DB680A491846FFF77BFB0346002BECD164
:100FFC0000BF00BF1437BD4690BD00BF00000343C7
:10100C002C0000200000B44300003443000034C323
:10101C0080B400AF024BDB681846BD4680BC7047FD
:10102C002C00002080B400AF034B4FF00002DA60BC
:10103C0000BFBD4680BC70472C00002080B483B03C
:10104C0000AF0346FB7197F90730002B0BDBFB79E4
:10105C0003F01F02064997F907305B09012000FADB
:10106C0002F241F8232000BF0C37BD4680BC70470C
:10107C0000E100E080B483B000AF1B4B9B685B08C1
:10108C00DBB203F00103FB71174B9B689B08DBB2CF
:10109C0003F00103BB71154B1B78DBB2FA799A4252
:1010AC0005D1134B1B78DBB2BA799A4216D0104B90
:1010BC001B78DBB2FA799A4205D00E4B1B680133D0
:1010CC000C4A136004E00B4B1B68013B094A13608C
:1010DC00064AFB791370064ABB79137000BF0C37B4
:1010EC00BD4680BC704700BF00080140480000208E
:1010FC00490000204000002080B483B000AF1B4B9F
:10110C009B681B0ADBB203F00103FB71174B9B6856
:10111C005B0ADBB203F00103BB71154B1B78DBB22E
:10112C00FA799A4205D1134B1B78DBB2BA799A4201
:10113C0016D0104B1B78DBB2FA799A4205D00E4BC5
:10114C001B6801330C4A136004E00B4B1B68013B1A
:10115C00094A1360064AFB791370064ABB7913706F
:10116C0000BF0C37BD4680BC704700BF000C01406F
:10117C004A0000204B0000204400002080B500AF46
:10118C00494B9B69484A43F004039361464B9B6966
:10119C00454A43F008039361434B9B69424A43F031
:1011AC0001039361414B1B6823F47F633F4A43F473
:1011BC00086313603D4BDB683C4A43F00603D36085
:1011CC003B4B5B6823F0FF03394A43F088035360C1
:1011DC00374BDB68364A43F44073D360354B9B681E
:1011EC00344A23F47F639360324B1B6923F0FF0373
:1011FC00304A43F0110313612F4B9B682E4A43F482
:10120C00417343F0020393602B4BDB682A4A43F48F
:10121C00417343F00203D360274B40F206325A610C
:10122C00254B1B68244A43F4417343F002031360BB
:10123C000720FFF703FF0820FFF700FF1720FFF739
:10124C00FDFE1A4B9B685B08DBB203F00103DAB2BC
:10125C001A4B1A70154B9B689B08DBB203F0010309
:10126C00DAB2174B1A70124B9B681B0ADBB203F0F5
:10127C000103DAB2134B1A700D4B9B685B0ADBB29D
:10128C0003F00103DAB2104B1A70104B00221A60F3
:10129C000F4B00221A600F4B00221A600E4B0022DB
:1012AC001A6000BF80BD00BF001002400008014062
:1012BC00000C0140000001400004014048000020E7
:1012CC00490000204A0000204B0000204000002074
:1012DC00440000204C0000205000002080B584B059
:1012EC0000AF78604FF000017868FFF703FA03460F
:1012FC00002B02D04FF0000313E00C4B1B68FB607B
:10130C000B4B1B68FA68D31ABB60094AFB68136065
:10131C00B868FEF7F3FF034679681846FFF7F6F84E
:10132C00034618461037BD4680BD00BF4000002064
:10133C004C00002080B584B000AF78604FF0000105
:10134C007868FFF7D7F90346002B02D04FF0000363
:10135C0013E00C4B1B68FB600B4B1B68FA68D31A31
:10136C00BB60094AFB681360B868FEF7C7FF034609
:10137C0079681846FFF7CAF8034618461037BD4679
:10138C0080BD00BF440000205000002080B400AF9E
:10139C00074B00221A60074B00221A60064B0022F2
:1013AC001A60064B00221A6000BFBD4680BC704715
:1013BC0040000020440000204C0000205000002081
:1013CC0080B500AFFFF756FE00BF80BD80B500AF03
:1013DC00FFF750FE00BF80BD80B500AFFFF78CFE5D
:1013EC0000BF80BD80B483B000AF0346FB80B7F96B
:1013FC000630B3F57A7F02DD4FF47A7308E0B7F963
:10140C00063013F57A7F01DA044B01E0B7F90630A8
:10141C0018460C37BD4680BC704700BF18FCFFFF58
:10142C0080B483B000AF0346FB80B7F90630002BC5
:10143C0003DAFB885B429BB200E0FB8818460C3752
:10144C00BD4680BC7047000080B400AF3D4B9B692B
:10145C003C4A43F0040393613A4B9B69394A43F08D
:10146C0008039361374B9B69364A43F00103936140
:10147C00344BDB69334A43F00203D361324B1B68B4
:10148C0023F47F03304A43F4081313602E4B1B687C
:10149C0023F07F432C4A43F02A4313602B4B1B68E9
:1014AC0023F0FF03294A43F022031360264BDB6829
:1014BC00254A23F03003D360244BDB68234A23F006
:1014CC000303D360224B1B68214A23F001031360F2
:1014DC001F4B47229A621E4B40F2E732DA621C4BDA
:1014EC009B6923F078031A4A43F068039361184B05
:1014FC009B6923F4F043164A43F4D0439361144B95
:10150C001B6A134A43F011031362114B00225A63F6
:10151C000F4B00229A630E4B5B690D4A43F001039B
:10152C0053610B4B1B680A4A43F080031360084B52
:10153C001B68074A43F00103136000BFBD4680BC23
:10154C00704700BF0010024000080140000C014031
:10155C000004004080B582B000AF0346FB80B7F9B1
:10156C0006301846FFF73EFF0346FB80B7F90630FE
:10157C00002B0CDD184BDB68174A43F01003D360CB
:10158C00154BDB68144A23F02003D36016E0B7F93F
:10159C000630002B0CDA104BDB680F4A23F01003DB
:1015AC00D3600D4BDB680C4A43F02003D36005E09D
:1015BC00094BDB68084A23F03003D360B7F90630D7
:1015CC001846FFF72DFF03461A46044B5A6300BF1B
:1015DC000837BD4680BD00BF000801400004004034
:1015EC0080B582B000AF0346FB80B7F906301846D1
:1015FC00FFF7F8FE0346FB80B7F90630002B0CDD35
:10160C00184BDB68174A43F00103D360154BDB68BA
:10161C00144A23F00203D36016E0B7F90630002B0E
:10162C000CDA104BDB680F4A23F00103D3600D4B2F
:10163C00DB680C4A43F00203D36005E0094BDB681E
:10164C00084A23F00303D360B7F906301846FFF7B6
:10165C00E7FE03461A46044B9A6300BF0837BD46A3
:10166C0080BD00BF000C01400004004080B582B07A
:10167C0000AF03460A46FB801346BB80B7F9063021
:10168C001846FFF767FFB7F904301846FFF7A8FFB5
:10169C0000BF0837BD4680BD80B400AF0A4BDB6885
:1016AC00094A23F03003D360084BDB68074A23F068
:1016BC000303D360064B00225A63054B00229A6346
:1016CC0000BFBD4680BC704700080140000C0140C3
:1016DC000004004080B584B002AFFFF7B5FEFFF701
:1016EC004DFDFFF7A5FB0346FB711D4B01931D4BF5
:1016FC0000931D4B4FF07C524FF080411B48FFF77D
:10170C005CF9174B0193174B0093174B4FF07C521E
:10171C004FF080411648FFF750F9164B0193164BCA
:10172C0000934FF07C53104A14491548FFF745F9C4
:10173C0014490E48FFF72FFA12490D48FFF72BFA00
:10174C0011490F48FFF727FA104B00221A70104B63
:10175C004FF000021A6000BF0837BD4680BD00BFC5
:10176C0000007A4400007AC4CDCCCC3D540000205B
:10177C00740000200000FA430000FAC30000A040EF
:10178C00940000200000964300004843B400002061
:10179C00B800002080B500AF0C4B02221A70FFF786
:1017AC007BFFFFF785FBFFF7F1FDFFF73BFC0848DC
:1017BC00FFF7E0F90748FFF7DDF90748FFF7DAF91B
:1017CC00024B00221A7000BF80BD00BFB400002085
:1017DC0054000020740000209400002080B582B0DA
:1017EC0000AF78600F4A7B6813604FF00001786897
:1017FC00FEF76CFF0346002B0CD10B4B1B78002B18
:10180C0004D1FFF70FFC0948FFF7B4F9064B01228E
:10181C001A7002E0044B00221A7000BF0837BD4654
:10182C0080BD00BFB8000020B40000209400002050
:10183C0080B586B000AF78604FF000017868FEF795
:10184C0059FF0346002B03D1444B1B78012B06D0C8
:10185C00424B1B78002B7CD1FFF71EFF79E0786898
:10186C00FFF76EFB7868FFF739FD03463C4A1360BF
:10187C007868FFF75FFD03463A4A1360FFF7C8FB31
:10188C000346394A1360394B1968354B1A687B6823
:10189C003748FFF7BDF87861344B1968314B1A683B
:1018AC007B683448FFF7B4F838612F4B1A687B68B3
:1018BC004FF000013048FFF7ABF8F860F968786931
:1018CC00FEF766FC03461846FEF732FF03461AB2D3
:1018DC002A4B1A80F9683869FEF75CFC03461846F7
:1018EC00FEF726FF03461AB2254B1A80234BB3F999
:1018FC000030B3F57A7F03DD204B4FF47A721A80F7
:10190C001E4BB3F9003013F57A7F03DA1B4B4FF6FD
:10191C0018421A801A4BB3F90030B3F57A7F03DD05
:10192C00174B4FF47A721A80154BB3F9003013F53C
:10193C007A7F03DA124B4FF618421A800F4BB3F929
:10194C0000300F4AB2F9002011461846FFF78EFE00
:10195C0000E000BF1837BD4680BD00BFB4000020BA
:10196C00BC000020C0000020C4000020B8000020F3
:10197C00540000207400002094000020C8000020B7
:10198C00CA00002080B400AFFEE780B400AFFEE7D1
:10199C0080B400AFFEE780B400AFFEE780B400AFC8
:1019AC00FEE780B400AF00BFBD4680BC704780B47A
:1019BC0000AF00BFBD4680BC704780B400AF00BF15
:1019CC00BD4680BC7047000080B500AF00F0F8F851
:1019DC00034B1B680133024A136000BF80BD00BF7C
:1019EC002800002080B500AF064B5B6903F00203B2
:1019FC00002B04D0034B02225A61FFF7E1FC00BF1D
:101A0C0080BD00BF0004014080B500AF064B5B6990
:101A1C0003F00403002B04D0034B04225A61FFF79C
:101A2C00D5FC00BF80BD00BF0004014080B500AFF5
:101A3C000C4B5B6903F48073002B05D0094B4FF4FE
:101A4C0080725A61FFF7C8FC064B5B6903F40073A4
:101A5C00002B05D0034B4FF400725A61FFF7BCFC0E
:101A6C0000BF80BD0004014080B582B000AF194BAF
:101A7C009B69184A43F001039361164B9B6903F071
:101A8C0001037B607B68134BDB69124A43F0805384
:101A9C00D361104BDB6903F080533B603B68032040
:101AAC0000F050F900F09EF903460B4AA2FB032309
:101ABC009B09184600F06DF9042000F077F900221C
:101ACC0000214FF0FF3000F048F900BF0837BD4649
:101ADC0080BD00BF00100240D34D621080B400AF37
:101AEC0000BFBD4680BC7047FFF7F8FF0B480C49A0
:101AFC000C4A002302E0D458C4500433C4188C425E
:101B0C00F9D3094A094C002301E013600432A242C4
:101B1C00FBD3FEF733FEFEF755FE704700000020A6
:101B2C000C000020241E00080C000020D000002017
:101B3C00FEE7000080B500AF084B1B68074A43F076
:101B4C0010031360032000F0FDF80F2000F008F8DC
:101B5C00FFF78AFF0023184680BD00BF002002401B
:101B6C0080B582B000AF7860124B1A68124B1B78AC
:101B7C0019464FF47A73B3FBF1F3B2FBF3F3184647
:101B8C0000F007F90346002B01D001230EE07B681F
:101B9C000F2B0AD8002279684FF0FF3000F0DDF8E7
:101BAC00064A7B681360002300E0012318460837BF
:101BBC00BD4680BD0000002008000020040000206D
:101BCC0080B400AF054B1B781A46054B1B681344B9
:101BDC00034A136000BFBD4680BC7047080000205C
:101BEC00CC00002080B485B000AF78607B6803F037
:101BFC000703FB600C4BDB68BB60BA684FF6FF0356
:101C0C001340BB60FB681A02BB68134343F0BF630D
:101C1C0043F40033BB60044ABB68D36000BF143785
:101C2C00BD4680BC704700BF00ED00E080B400AF43
:101C3C00044BDB681B0A03F007031846BD4680BC47
:101C4C00704700BF00ED00E080B483B000AF0346E6
:101C5C003960FB7197F90730002B0ADB3B68DAB26D
:101C6C000C4997F907301201D2B20B4483F80023C8
:101C7C000AE03B68DAB20849FB7903F00F03043B36
:101C8C001201D2B20B441A7600BF0C37BD4680BC91
:101C9C00704700BF00E100E000ED00E080B489B0C7
:101CAC0000AFF860B9607A60FB6803F00703FB6172
:101CBC00FB69C3F10703042B28BF0423BB61FB6939
:101CCC000433062B02D9FB69033B00E000237B6144
:101CDC004FF0FF32BB6902FA03F3DA43BB681A40D8
:101CEC007B699A404FF0FF317B6901FA03F3D943CA
:101CFC007B680B40134318462437BD4680BC7047A5
:101D0C0080B582B000AF78607B68013BB3F1807F17
:101D1C0001D301230FE00A4A7B68013B53600F217A
:101D2C004FF0FF30FFF790FF054B00229A60044BF9
:101D3C0007221A60002318460837BD4680BD00BF35
:101D4C0010E000E080B582B000AF78607868FFF7F3
:101D5C0049FF00BF0837BD4680BD80B586B000AFD7
:101D6C000346B9607A60FB7300237B61FFF75EFF6B
:101D7C0078617A68B9687869FFF790FF024697F93D
:101D8C000F3011461846FFF75FFF00BF1837BD46EE
:101D9C0080BD80B582B000AF78607868FFF7B0FF87
:101DAC00034618460837BD4680BD000080B483B09A
:101DBC0000AF78607B68042B06D1094B1B68084A7E
:101DCC0043F00403136005E0054B1B68044A23F041
:101DDC000403136000BF0C37BD4680BC704700BFC6
:101DEC0010E000E080B400AF024B1B681846BD4603
:101DFC0080BC704700000020F8B500BFF8BC08BCE0
:101E0C009E467047F8B500BFF8BC08BC9E467047AC
:041E1C007501000844
:041E20004D01000868
:0C1E240000127A00100000000100000015
:0400000508001AF5E0
:00000001FF
