:020000040800F2
:1000000000500020450D0008550400085B0400085E
:1000100061040008670400086D0400080000000087
:100020000000000000000000000000007304000851
:100030007F040008000000008B04000897040008FB
:100040008D0D00088D0D00088D0D00088D0D000828
:100050008D0D00088D0D0008FD0C0008210D000815
:100060008D0D00088D0D00088D0D00088D0D000808
:100070008D0D00088D0D00088D0D00088D0D0008F8
:100080008D0D00088D0D00088D0D00088D0D0008E8
:100090008D0D00088D0D00088D0D00088D0D0008D8
:1000A0008D0D00088D0D00088D0D00088D0D0008C8
:1000B0008D0D00088D0D00088D0D00088D0D0008B8
:1000C0008D0D00088D0D00088D0D00088D0D0008A8
:1000D0008D0D00088D0D00088D0D00088D0D000898
:1000E0008D0D00088D0D00088D0D0008000000002A
:1000F0000000000000000000000000000000000000
:0C01000000000000000000005FF808F1A3
:10010C000348044B834202D0034B03B1184770479A
:10011C000C0000200C0000200000000005480649DF
:10012C000B1AD90F01EBA301491002D0034B03B1F9
:10013C00184770470C0000200C0000200000000045
:10014C0010B5064C237843B9FFF7DAFF044B13B113
:10015C000448AFF300800123237010BD0C00002075
:10016C0000000000D024000808B5044B1BB1044962
:10017C000448AFF30080BDE80840CFE70000000062
:10018C0010000020D024000870B50D4E0D4D761BCC
:10019C00B61006D0002455F8043B01349847A6420B
:1001AC00F9D1094E094D02F08DF9761BB61006D027
:1001BC00002455F8043B01349847A642F9D170BD90
:1001CC002C2700082C270008302700082C270008B3
:1001DC00830730B548D0541E002A3FD00346CAB21C
:1001EC0001E0013C3AD303F8012B9D07F9D1032C14
:1001FC002DD9CDB245EA05250F2C45EA054536D952
:10020C00A4F1100222F00F0C03F1200EE6444FEA89
:10021C00121C03F1100242E9045542E90255103256
:10022C007245F8D10CF1010214F00C0F03EB021221
:10023C0004F00F0C13D0ACF1040323F003030433CC
:10024C00134442F8045B9342FBD10CF003042CB131
:10025C00CAB21C4403F8012B9C42FBD130BD64464E
:10026C001346002CF4D1F9E703461446BFE71A46AF
:10027C00A446E0E780B5ADF58D6D02AF00F082FDD0
:10028C0000F090F807F581633C21184600F03CF92A
:10029C0007F58163184600F079F907F581623B1D7B
:1002AC001146184600F0D8F93B1D184600F02CFA00
:1002BC003B1D0021184600F09DFA381D01230093C8
:1002CC00324B0522142100F070FC381D01230193E0
:1002DC004023009380230022002100F087FB381D6F
:1002EC0001230193142300937F231422002100F097
:1002FC000EFB381D01230093254B1922052100F01C
:10030C0054FC381D01230093224B2322052100F0BD
:10031C004CFC381D012300931F4B2D22052100F0AE
:10032C0044FC381D012301930F23009314232D2229
:10033C00642100F0C3FB3B1D184600F074FA00F07A
:10034C0079FD0246154B1B68D31A40F2CF729342CB
:10035C008CBF01230023DBB2002B12D000F06AFD0E
:10036C0003460E4A13600E4B1B7883F00103DAB27E
:10037C000B4B1A700A4B1A783B1D1146184600F0AD
:10038C0047FC642000F060FDD9E700BFE8240008BA
:10039C00F424000808250008182500082C0000206B
:1003AC002800002080B590B000AF07F11803282278
:1003BC0000211846FFF70CFF3B1D00221A605A6003
:1003CC009A60DA601A610123BB614FF48033FB61E0
:1003DC0000233B6202237B634FF48033BB634FF4F7
:1003EC00E013FB6307F11803184601F06FFC03469A
:1003FC00002B14BF01230023DBB2002B01D000F033
:10040C001EF80F237B600223BB600023FB604FF4BC
:10041C0080633B6100237B613B1D0221184601F088
:10042C00D7FE0346002B14BF01230023DBB2002BA5
:10043C0001D000F004F800BF4037BD4680BD80B449
:10044C0000AF72B600BFFEE780B400AFFEE780B429
:10045C0000AFFEE780B400AFFEE780B400AFFEE76C
:10046C0080B400AFFEE780B400AF00BFBD4680BCD7
:10047C00704780B400AF00BFBD4680BC704780B4ED
:10048C0000AF00BFBD4680BC704780B500AF00F028
:10049C00BFFC00BF80BD000080B485B000AF154B21
:1004AC009B69144A43F001039361124B9B6903F05F
:1004BC000103BB60BB680F4BDB690E4A43F08053F2
:1004CC00D3610C4BDB6903F080537B607B680A4B78
:1004DC005B68FB60FB6823F0E063FB60FB6843F048
:1004EC000073FB60044AFB68536000BF1437BD46C1
:1004FC0080BC7047001002400000014080B400AF87
:10050C0000BFBD4680BC704780B582B000AF78603C
:10051C000B46FB707B68FA781A707B6804335422A4
:10052C0000211846FFF754FE7B6818460837BD4675
:10053C0080BD000080B588B000AF786007F1100373
:10054C0000221A605A609A60DA600E4B9B690D4A61
:10055C0043F0080393610B4B9B6903F00803FB60AA
:10056C00FB68C0233B6112237B610323FB6107F112
:10057C0010031946044800F06FFD00BF2037BD463C
:10058C0080BD00BF00100240000C014080B584B05B
:10059C0000AF7860194BDB69184A43F40013D36140
:1005AC00164BDB6903F40013FB60FB687868FFF7FC
:1005BC00C1FF7B68124A5A607B68124A9A607B685A
:1005CC000022DA607B6800221A617B684FF480425B
:1005DC005A617B6800229A617B680022DA617B6831
:1005EC0000221A627B6800225A627B680433184628
:1005FC0000F0B6FE00BF1037BD4680BD00100240B3
:10060C0000540040A086010080B58AB004AFF860A9
:10061C007A601A460B46FB7213463B81FB68181D29
:10062C00FB681B789BB25B0099B2FB7A9AB264238D
:10063C0002933B8901937B680093012300F0DEFF5A
:10064C000346FB75FB7D002B0CBF01230023DBB2A3
:10065C0018461837BD4680BD80B582B000AF7860B3
:10066C0039607B683A681A607B6804334FF48062A7
:10067C0000211846FFF7ACFD7B6818460837BD46CD
:10068C0080BD80B584B000AF78600B46FB70002352
:10069C00BB81FB787B737B681868FA1C01230021F3
:1006AC00FFF7B2FF00BF1037BD4680BD80B586B0E6
:1006BC0000AFF860B9601346FB801023BB820023A7
:1006CC00FB82FA8AFB889A421AD2FA88FB8AD31ADE
:1006DC009BB23B823B8A0F2B03D807F110031B887C
:1006EC0000E010237B82FB681868FB8ABA681A4406
:1006FC007B8A4021FFF788FFFB8A1033FB82E0E7FF
:10070C0000BF1837BD4680BD80B582B000AF7860A1
:10071C00642000F099FBAE217868FFF7B2FFD52179
:10072C007868FFF7AEFF80217868FFF7AAFFA82151
:10073C007868FFF7A6FF3F217868FFF7A2FFD32167
:10074C007868FFF79EFF00217868FFF79AFF402139
:10075C007868FFF796FF8D217868FFF792FF1421D8
:10076C007868FFF78EFF20217868FFF78AFF002159
:10077C007868FFF786FFA1217868FFF782FFC82110
:10078C007868FFF77EFFDA217868FFF77AFF12218D
:10079C007868FFF776FF81217868FFF772FFCF2129
:1007AC007868FFF76EFFD9217868FFF76AFFF121AF
:1007BC007868FFF766FFDB217868FFF762FF40215E
:1007CC007868FFF75EFFA4217868FFF75AFFA6212F
:1007DC007868FFF756FFAF217868FFF752FF0021CA
:1007EC00786800F007F8786800F01DF800BF08374B
:1007FC00BD4680BD80B584B000AF78600B46FB7001
:10080C00FB78012B01D1FF2300E00023FB737B68F5
:10081C000433F97B4FF480621846FFF7D9FC00BF14
:10082C001037BD4680BD80B582B000AF7860212105
:10083C007868FFF726FF00217868FFF722FF7F21F9
:10084C007868FFF71EFF22217868FFF71AFF002156
:10085C007868FFF716FF07217868FFF712FF7B68AF
:10086C0004334FF4806219467868FFF71FFF00BF0E
:10087C000837BD4680BD80B485B000AF78600846AF
:10088C0011461A460346FB700B46BB7013467B7031
:10089C0097F90330002B35DBBB783F2B32D8FB7834
:1008AC009AB2BB78DB08DBB29BB2DB019BB2134480
:1008BC00FB81BB7803F00703012202FA03F37B737D
:1008CC007B78012B0CD1FB897A6813441979FB894D
:1008DC007A7B0A43D1B27A6813440A461A7112E041
:1008EC00FB897A6813441B795AB297F90D30DB43B4
:1008FC005BB213405AB2FB89D1B27A6813440A46F0
:10090C001A7100E000BF1437BD4680BC704780B53B
:10091C0086B000AF7860084611461A460346FB7055
:10092C000B46BB7013467B707A78FB78D31A002B7E
:10093C00B8BF5B42BB8297F82020BB78D31A002B40
:10094C00B8BF5B429BB25B429BB27B82FA787B78EE
:10095C009A4201D2012301E04FF0FF337B74BA7845
:10096C0097F820309A4201D2012301E04FF0FF3377
:10097C003B74BA8A7B8A13449BB2FB8297F824306F
:10098C00BA78F9787868FFF776FFFA787B789A422C
:10099C0004D1BA7897F820309A4222D0FB8A5B00B7
:1009AC009BB2FB81B7F90E20B7F912309A4208DBE3
:1009BC00FA8A7B8A13449BB2FB827A7CFB781344C1
:1009CC00FB70B7F90E20B7F914309A42D6DCFA8ACC
:1009DC00BB8A13449BB2FB823A7CBB781344BB703A
:1009EC00CCE700BF00BF1837BD4680BD90B585B0C1
:1009FC0002AF7860084611461A460346FB700B4658
:100A0C00BB7013467B70FA787B781344DBB2013BE6
:100A1C00D8B2BA78F9783B7F0193BB780093034640
:100A2C007868FFF774FFBA783B7E1344DBB2013B66
:100A3C00D8B2FA787B781344DBB2013BDCB2BA78DB
:100A4C003B7E1344DBB2013BDBB2F9783A7F019277
:100A5C000093234602467868FFF759FFBA783B7E2D
:100A6C001344DBB2013BDBB2FC78B878F9783A7FFF
:100A7C0001920093234602467868FFF748FFFA7804
:100A8C007B781344DBB2013BD9B2FA787B78134400
:100A9C00DBB2013BDCB2BA783B7E1344DBB2013BE8
:100AAC00DBB2B8783A7F019200932346024678680D
:100ABC00FFF72DFF00BF0C37BD4690BD90B587B03A
:100ACC0002AF7860084611461A460346FB700B4687
:100ADC00BB7013467B700023FB73FA7B97F82030B6
:100AEC009A421BD2BA78FB7B1344D8B2FA787B7843
:100AFC001344DBB2013BDCB2BA78FB7B1344DBB2B0
:100B0C00F97897F8242001920093234602467868DE
:100B1C00FFF7FDFEFB7B0133FB73DEE700BF1437F1
:100B2C00BD4690BD80B586B000AF786008461146D2
:100B3C001A460346FB700B46BB7013467B707B78E2
:100B4C00184600F079F838610023FB75FB7D042B07
:100B5C0026D8FB7D3A6913441B78FB730023BB75C5
:100B6C00BB7D062B18D8FA7BBB7D42FA03F303F04E
:100B7C000103002B0CD0FA78FB7D1344D9B2BA7860
:100B8C00BB7D1344DAB297F820307868FFF773FE18
:100B9C00BB7D0133BB75E3E7FB7D0133FB75D5E70B
:100BAC00062318461837BD4680BD80B588B002AF05
:100BBC00F8607B600B46FB721346BB72FB7AFB75CD
:100BCC007B681B78002B1FD0FB7D7B2B07D9FB7A16
:100BDC00FB75BB7A0833BB72BB7A392B13D87B6895
:100BEC001878BA7AF97D97F8203000930346F868A4
:100BFC00FFF798FF03461A46FB7D1344FB757B6891
:100C0C0001337B60DCE700BF00BF1837BD4680BDF9
:100C1C0080B582B000AF78600B46FB70FB78002B80
:100C2C0001D0A72300E0A62319467868FFF729FD19
:100C3C0000BF0837BD4680BD80B483B000AF03460B
:100C4C00FB71FB791F2B02D9FB797E2B01D93F233A
:100C5C00FB71FB79A3F1200213469B001344034A5A
:100C6C00134418460C37BD4680BC70473C25000821
:100C7C0080B483B000AF1A4B9B68DBB203F0010366
:100C8C00FB71174B9B685B08DBB203F00103BB7174
:100C9C00144B1B78DBB2FA799A4205D1124B1B78B4
:100CAC00DBB2BA799A4216D00F4B1B78DBB2FA79C9
:100CBC009A4205D00D4B1B6801330C4A136004E0BB
:100CCC000A4B1B68013B094A1360064AFB791370F7
:100CDC00054ABB79137000BF0C37BD4680BC70470A
:100CEC0000080140340000203500002030000020B6
:100CFC0080B500AF064B5B6903F00103002B04D0F9
:100D0C00034B01225A61FFF7B3FF00BF80BD00BF48
:100D1C000004014080B500AF064B5B6903F0020391
:100D2C00002B04D0034B02225A61FFF7A1FF00BF36
:100D3C0080BD00BF00040140FFF7E0FB0B480C49ED
:100D4C000C4A002302E0D458C4500433C4188C421B
:100D5C00F9D3094A094C002301E013600432A24282
:100D6C00FBD3FFF711FAFFF785FA7047000000205C
:100D7C000C000020342700080C0000203C00002050
:100D8C00FEE7000080B500AF084B1B68074A43F034
:100D9C0010031360032000F02BF90F2000F008F86B
:100DAC00FFF77AFB0023184680BD00BF00200240ED
:100DBC0080B582B000AF7860124B1A68124B1B786A
:100DCC0019464FF47A73B3FBF1F3B2FBF3F3184605
:100DDC0000F035F90346002B01D001230EE07B68AF
:100DEC000F2B0AD8002279684FF0FF3000F00BF976
:100DFC00064A7B681360002300E00123184608377D
:100E0C00BD4680BD0000002008000020040000202A
:100E1C0080B400AF054B1B781A46054B1B68134476
:100E2C00034A136000BFBD4680BC70470800002019
:100E3C003800002080B400AF024B1B681846BD463A
:100E4C0080BC70473800002080B584B000AF78605B
:100E5C00FFF7F0FFB8607B68FB60FB68B3F1FF3F06
:100E6C0005D00A4B1B781A46FB681344FB6000BF85
:100E7C00FFF7E0FF0246BB68D31AFA689A42F7D82C
:100E8C0000BF00BF1037BD4680BD00BF080000206A
:100E9C0080B485B000AF78607B6803F00703FB601B
:100EAC000C4BDB68BB60BA684FF6FF031340BB60AA
:100EBC00FB681A02BB68134343F0BF6343F400336F
:100ECC00BB60044ABB68D36000BF1437BD4680BC0E
:100EDC00704700BF00ED00E080B400AF044BDB684E
:100EEC001B0A03F007031846BD4680BC704700BFC1
:100EFC0000ED00E080B483B000AF03463960FB71B5
:100F0C0097F90730002B0ADB3B68DAB20C4997F9EA
:100F1C0007301201D2B20B4483F800230AE03B687D
:100F2C00DAB20849FB7903F00F03043B1201D2B289
:100F3C000B441A7600BF0C37BD4680BC704700BF0F
:100F4C0000E100E000ED00E080B489B000AFF86093
:100F5C00B9607A60FB6803F00703FB61FB69C3F1BE
:100F6C000703042B28BF0423BB61FB690433062B46
:100F7C0002D9FB69033B00E000237B614FF0FF3299
:100F8C00BB6902FA03F3DA43BB681A407B699A40E7
:100F9C004FF0FF317B6901FA03F3D9437B680B40B7
:100FAC00134318462437BD4680BC704780B582B0C9
:100FBC0000AF78607B68013BB3F1807F01D30123E4
:100FCC000FE00A4A7B68013B53600F214FF0FF3062
:100FDC00FFF790FF054B00229A60044B07221A6022
:100FEC00002318460837BD4680BD00BF10E000E066
:100FFC0080B582B000AF78607868FFF749FF00BF1A
:10100C000837BD4680BD80B586B000AF0346B960D9
:10101C007A60FB7300237B61FFF75EFF78617A686F
:10102C00B9687869FFF790FF024697F90F301146BF
:10103C001846FFF75FFF00BF1837BD4680BD80B56F
:10104C0082B000AF78607868FFF7B0FF03461846AF
:10105C000837BD4680BD000080B48BB000AF78600F
:10106C00396000237B6200233B6269E101227B6AC9
:10107C0002FA03F3FB613B681B68FA691340BB611E
:10108C00BA69FB699A4240F058813B685B689A4A9E
:10109C0093425ED0984A934275D8984A934258D05E
:1010AC00964A93426FD8964A934252D0944A9342AE
:1010BC0069D8944A93424CD0924A934263D8924A4C
:1010CC00934246D0904A93425DD8122B2AD8122BC9
:1010DC0059D801A252F823F05F1100083911000809
:1010EC004B1100088D110008931100089311000892
:1010FC009311000893110008931100089311000834
:10110C009311000893110008931100089311000823
:10111C009311000893110008931100084111000865
:10112C0055110008794A934213D02CE03B68DB68D8
:10113C003B6229E03B68DB6804333B6224E03B689C
:10114C00DB6808333B621FE03B68DB680C333B62B7
:10115C001AE03B689B68002B02D104233B6213E02E
:10116C003B689B68012B05D108233B627B68FA69BD
:10117C001A6109E008233B627B68FA695A6103E053
:10118C0000233B6200E000BFBB69FF2B01D87B68EA
:10119C0001E07B6804337B61BB69FF2B02D87B6A5F
:1011AC009B0002E07B6A083B9B003B617B691A68F1
:1011BC000F213B6901FA03F3DB431A40396A3B699F
:1011CC0001FA03F31A437B691A603B685B6803F00E
:1011DC008053002B00F0B1804D4B9B694C4A43F07F
:1011EC00010393614A4B9B6903F00103BB60BB682D
:1011FC00484A7B6A9B08023352F82330FB607B6AB7
:10120C0003F003039B000F2202FA03F3DB43FA689B
:10121C001340FB607B68404A934213D07B683F4A83
:10122C0093420DD07B683E4A934207D07B683D4A7F
:10123C00934201D1032306E0042304E0022302E0DD
:10124C00012300E000237A6A02F00302920093402B
:10125C00FA681343FB602F497B6A9B080233FA68D8
:10126C0041F823203B685B6803F48013002B06D005
:10127C002D4B9A682C49BB6913438B6006E02A4BB3
:10128C009A68BB69DB43284913408B603B685B68F9
:10129C0003F40013002B06D0234BDA682249BB69F8
:1012AC001343CB6006E0204BDA68BB69DB431E4975
:1012BC001340CB603B685B6803F40033002B06D013
:1012CC00194B5A681849BB6913434B6006E0164B1F
:1012DC005A68BB69DB43144913404B603B685B683D
:1012EC0003F48033002B21D00F4B1A680E49BB69D5
:1012FC0013430B6021E000BF0000321000003110DE
:10130C00000022100000211000001210000011102B
:10131C00001002400000014000080140000C014098
:10132C000010014000140140000401400B4B1A68EE
:10133C00BB69DB43094913400B607B6A01337B6259
:10134C003B681A687B6A22FA03F3002B7FF48EAE9B
:10135C0000BF00BF2C37BD4680BC70470004014065
:10136C0080B584B000AF78607B68002B01D101237D
:10137C002BE17B6893F83D30DBB2002B06D17B6808
:10138C00002283F83C20786800F02EF97B68242238
:10139C0083F83D207B681B681A687B681B6822F009
:1013AC0001021A607B681B681A687B681B6842F430
:1013BC0000421A607B681B681A687B681B6822F401
:1013CC0000421A6001F04CF8F8607B685B68814A57
:1013DC00934207D8FB68804A934294BF01230023B1
:1013EC00DBB206E0FB687D4A934294BF01230023E5
:1013FC00DBB2002B01D00123E7E0FB68784AA2FBAB
:10140C0003239B0CBB607B681B685B6823F03F016C
:10141C007B681B68BA680A435A607B681B681B6A46
:10142C0023F03F017B685B686A4A934202D8BB6831
:10143C00013309E0BB684FF4967202FB03F3694A6F
:10144C00A2FB03239B0901337A6812680B431362D6
:10145C007B681B68DB6923F44F4222F0FF027B6838
:10146C005B685C498B4219D8FB68591E7B685B68CA
:10147C005B00B1FBF3F3591C40F6FC730B40002BE3
:10148C000AD0FB68591E7B685B685B00B1FBF3F309
:10149C000133C3F30B0351E004234FE07B689B68DB
:1014AC00002B11D1FB68581E7B6859680B465B00FA
:1014BC000B44B0FBF3F30133C3F30B03002B0CBF52
:1014CC0001230023DBB212E0FB68581E7B685968CD
:1014DC000B469B000B4499000B44B0FBF3F3013318
:1014EC00C3F30B03002B0CBF01230023DBB2002B37
:1014FC0001D0012322E07B689B68002B0ED1FB6896
:10150C00581E7B6859680B465B000B44B0FBF3F329
:10151C000133C3F30B0343F400430FE0FB68581E85
:10152C007B6859680B469B000B4499000B44B0FB3D
:10153C00F3F30133C3F30B0343F4404379680968B5
:10154C001343CB617B681B681B6823F0C0017B686D
:10155C00DA697B681B6A1A437B681B680A431A604A
:10156C007B681B689B6823F4034323F0FF037A68B2
:10157C0011697A68D26811437A6812680B439360D8
:10158C007B681B68DB6823F0FF017B685A697B680A
:10159C009B691A437B681B680A43DA607B681B688B
:1015AC001A687B681B6842F001021A607B68002293
:1015BC001A647B68202283F83D207B6800221A6322
:1015CC007B68002283F83E20002318461037BD4666
:1015DC0080BD00BFA08601007F841E00FF083D0077
:1015EC0083DE1B43D34D621080B483B000AF7860B0
:1015FC0000BF0C37BD4680BC7047000080B588B07A
:10160C0002AFF860084611461A4603467B810B462A
:10161C003B811346FB80FFF70DFC7861FB6893F868
:10162C003D30DBB2202B40F0D9807B69009319232D
:10163C0001226D49F86800F071F90346002B01D0C6
:10164C000223CCE0FB6893F83C30012B01D1022340
:10165C00C5E0FB68012283F83C20FB681B681B6813
:10166C0003F00103012B07D0FB681B681A68FB68A9
:10167C001B6842F001021A60FB681B681A68FB6861
:10168C001B6822F400621A60FB68212283F83D205B
:10169C00FB68402283F83E20FB6800221A64FB683A
:1016AC003A6A5A62FB68BA8C5A85FB685B8D9AB2AF
:1016BC00FB681A85FB684D4ADA62F8883A897989A1
:1016CC007B690193BB6A00930346F86800F090F8BD
:1016DC000346002B52D0012381E07A69B96AF8687D
:1016EC0000F036FA0346002B0DD0FB681B6C042B64
:1016FC0007D1FB681B681A68FB681B6842F4007210
:10170C001A6001236BE0FB685B6A1A78FB681B6844
:10171C001A61FB685B6A5A1CFB685A62FB681B8D7A
:10172C00013B9AB2FB681A85FB685B8D9BB2013B4F
:10173C009AB2FB685A85FB681B685B6903F004036B
:10174C00042B1BD1FB681B8D002B17D0FB685B6A2D
:10175C001A78FB681B681A61FB685B6A5A1CFB6889
:10176C005A62FB681B8D013B9AB2FB681A85FB68B9
:10177C005B8D9BB2013B9AB2FB685A85FB681B8D53
:10178C00002BAAD17A69B96AF86800F029FA0346E5
:10179C00002B0DD0FB681B6C042B07D1FB681B685E
:1017AC001A68FB681B6842F400721A60012316E089
:1017BC00FB681B681A68FB681B6842F400721A60AD
:1017CC00FB68202283F83D20FB68002283F83E2032
:1017DC00FB68002283F83C20002300E0022318461B
:1017EC001837BD4680BD00BF020010000000FFFF8F
:1017FC0080B588B002AFF860084611461A46034619
:10180C007B810B463B811346FB80FB681B681A6887
:10181C00FB681B6842F480721A607B6A00933B6A17
:10182C0000224FF00111F86800F078F80346002B05
:10183C000DD0FB681B681B6803F48073B3F5807FC5
:10184C0003D1FB684FF400721A6403235FE07B89B9
:10185C00DBB21A46FB681B6802F0FE021A617B6A57
:10186C003A6A2D49F86800F0D3F80346002B01D0F2
:10187C0001234CE000237B61FB681B685B697B6187
:10188C00FB681B689B697B617B697A6A396AF868BB
:10189C0000F05EF90346002B0DD0FB681B6C042B8B
:1018AC0007D1FB681B681A68FB681B6842F400725E
:1018BC001A6001232BE0FB88012B05D13B89DAB29E
:1018CC00FB681B681A6121E03B891B0A9BB2DAB2E8
:1018DC00FB681B681A617A6A396AF86800F038F993
:1018EC000346002B0DD0FB681B6C042B07D1FB6847
:1018FC001B681A68FB681B6842F400721A600123AB
:10190C0005E03B89DAB2FB681B681A6100231846B4
:10191C001837BD4680BD00BF0200010080B584B001
:10192C0000AFF860B9603B601346FB7148E03B6860
:10193C00B3F1FF3F44D0FFF77DFA0246BB69D31ADF
:10194C003A689A4202D33B68002B39D1BB681B0C16
:10195C00DBB2012B0DD1FB681B685B69DA43BB68FA
:10196C0013409BB2002B0CBF01230023DBB21A46A1
:10197C000CE0FB681B689B69DA43BB6813409BB2A5
:10198C00002B0CBF01230023DBB21A46FB799A42D1
:10199C0016D1FB6800221A63FB68202283F83D20D5
:1019AC00FB68002283F83E20FB681B6C43F020028E
:1019BC00FB681A64FB68002283F83C20012323E0B7
:1019CC00BB681B0CDBB2012B0DD1FB681B685B6980
:1019DC00DA43BB6813409BB2002B0CBF01230023DE
:1019EC00DBB21A460CE0FB681B689B69DA43BB68E8
:1019FC0013409BB2002B0CBF01230023DBB21A4611
:101A0C00FB799A4293D0002318461037BD4680BD0F
:101A1C0080B584B000AFF860B9607A603B6071E06B
:101A2C00FB681B685B6903F48063B3F5806F23D19B
:101A3C00FB681B681A68FB681B6842F400721A602A
:101A4C00FB681B686FF480625A61FB6800221A63A2
:101A5C00FB68202283F83D20FB68002283F83E209F
:101A6C00FB681B6C43F00402FB681A64FB680022E1
:101A7C0083F83C20012367E07B68B3F1FF3F41D042
:101A8C00FFF7D8F902463B68D31A7A689A4202D318
:101A9C007B68002B36D1BB681B0CDBB2012B0CD145
:101AAC00FB681B685B69DA43BB6813409BB2002B75
:101ABC0014BF01230023DBB20BE0FB681B689B699E
:101ACC00DA43BB6813409BB2002B14BF01230023E5
:101ADC00DBB2002B16D0FB6800221A63FB682022B5
:101AEC0083F83D20FB68002283F83E20FB681B6CCA
:101AFC0043F02002FB681A64FB68002283F83C2048
:101B0C00012321E0BB681B0CDBB2012B0CD1FB6861
:101B1C001B685B69DA43BB6813409BB2002B14BF94
:101B2C0001230023DBB20BE0FB681B689B69DA43E3
:101B3C00BB6813409BB2002B14BF01230023DBB204
:101B4C00002B7FF46DAF002318461037BD4680BDC7
:101B5C0080B584B000AFF860B9607A6034E0F868A2
:101B6C0000F086F80346002B01D0012334E0BB685B
:101B7C00B3F1FF3F28D0FFF75DF902467B68D31A1B
:101B8C00BA689A4202D3BB68002B1DD1FB681B6854
:101B9C005B6903F08003802B16D0FB6800221A636C
:101BAC00FB68202283F83D20FB68002283F83E204E
:101BBC00FB681B6C43F02002FB681A64FB68002274
:101BCC0083F83C20012307E0FB681B685B6903F08A
:101BDC008003802BC3D1002318461037BD4680BD2F
:101BEC0080B584B000AFF860B9607A6034E0F86812
:101BFC0000F03EF80346002B01D0012334E0BB6813
:101C0C00B3F1FF3F28D0FFF715F902467B68D31AD2
:101C1C00BA689A4202D3BB68002B1DD1FB681B68C3
:101C2C005B6903F00403042B16D0FB6800221A63D3
:101C3C00FB68202283F83D20FB68002283F83E20BD
:101C4C00FB681B6C43F02002FB681A64FB680022E3
:101C5C0083F83C20012307E0FB681B685B6903F0F9
:101C6C000403042BC3D1002318461037BD4680BD96
:101C7C0080B483B000AF78607B681B685B6903F449
:101C8C008063B3F5806F1BD17B681B686FF4806237
:101C9C005A617B6800221A637B68202283F83D20FE
:101CAC007B68002283F83E207B681B6C43F00402A7
:101CBC007B681A647B68002283F83C20012300E0D7
:101CCC00002318460C37BD4680BC704780B586B0E3
:101CDC0000AF78607B68002B01D1012372E27B6836
:101CEC001B6803F00103002B00F08780924B5B68AC
:101CFC0003F00C03042B0CD08F4B5B6803F00C032C
:101D0C00082B12D18C4B5B6803F48033B3F5803F06
:101D1C000BD1894B1B6803F40033002B6CD07B6810
:101D2C005B68002B68D101234CE27B685B68B3F5E0
:101D3C00803F06D1804B1B687F4A43F4803313608D
:101D4C002EE07B685B68002B0CD17B4B1B687A4ABE
:101D5C0023F480331360784B1B68774A23F4802379
:101D6C0013601DE07B685B68B3F5A02F0CD1724B40
:101D7C001B68714A43F4802313606F4B1B686E4AD7
:101D8C0043F4803313600BE06B4B1B686A4A23F4FB
:101D9C0080331360684B1B68674A23F480231360FD
:101DAC007B685B68002B13D0FFF744F8386108E0C0
:101DBC00FFF740F802463B69D31A642B01D9032381
:101DCC0000E25D4B1B6803F40033002BF0D014E0F1
:101DDC00FFF730F8386108E0FFF72CF802463B6952
:101DEC00D31A642B01D90323ECE1534B1B6803F486
:101DFC000033002BF0D100E000BF7B681B6803F0C0
:101E0C000203002B63D04C4B5B6803F00C03002BDC
:101E1C000BD0494B5B6803F00C03082B1CD1464BD1
:101E2C005B6803F48033002B16D1434B1B6803F023
:101E3C000203002B05D07B681B69012B01D0012309
:101E4C00C0E13D4B1B6823F0F8027B685B69DB004B
:101E5C00394913430B603AE07B681B69002B20D097
:101E6C00364B01221A60FEF7E5FF386108E0FEF7F9
:101E7C00E1FF02463B69D31A022B01D90323A1E1EE
:101E8C002D4B1B6803F00203002BF0D02A4B1B6870
:101E9C0023F0F8027B685B69DB00274913430B6076
:101EAC0015E0264B00221A60FEF7C4FF386108E0EB
:101EBC00FEF7C0FF02463B69D31A022B01D903235C
:101ECC0080E11D4B1B6803F00203002BF0D17B68F3
:101EDC001B6803F00803002B3AD07B689B69002B2E
:101EEC0019D0174B01221A60FEF7A4FF386108E0E5
:101EFC00FEF7A0FF02463B69D31A022B01D903233C
:101F0C0060E10D4B5B6A03F00203002BF0D0012063
:101F1C0000F0BAFA1CE00A4B00221A60FEF78AFFA6
:101F2C0038610FE0FEF786FF02463B69D31A022B9D
:101F3C0008D9032346E100BF0010024000004242D2
:101F4C0080044242924B5B6A03F00203002BE9D1FE
:101F5C007B681B6803F00403002B00F0A6800023B1
:101F6C00FB758B4BDB6903F08053002B0DD1884B39
:101F7C00DB69874A43F08053D361854BDB6903F0FF
:101F8C008053BB60BB680123FB75824B1B6803F459
:101F9C008073002B18D17F4B1B687E4A43F48073EF
:101FAC001360FEF747FF386108E0FEF743FF024677
:101FBC003B69D31A642B01D9032303E1754B1B68CE
:101FCC0003F48073002BF0D07B68DB68012B06D107
:101FDC006F4B1B6A6E4A43F0010313622DE07B6862
:101FEC00DB68002B0CD16A4B1B6A694A23F0010396
:101FFC001362674B1B6A664A23F0040313621CE0EE
:10200C007B68DB68052B0CD1614B1B6A604A43F083
:10201C00040313625E4B1B6A5D4A43F001031362B7
:10202C000BE05B4B1B6A5A4A23F001031362584BBB
:10203C001B6A574A23F0040313627B68DB68002B8E
:10204C0015D0FEF7F7FE38610AE0FEF7F3FE024604
:10205C003B69D31A41F28832934201D90323B1E090
:10206C004B4B1B6A03F00203002BEED014E0FEF77F
:10207C00E1FE38610AE0FEF7DDFE02463B69D31A49
:10208C0041F28832934201D903239BE0404B1B6AF7
:10209C0003F00203002BEED1FB7D012B05D13C4B51
:1020AC00DB693B4A23F08053D3617B68DB69002BEF
:1020BC0000F08780364B5B6803F00C03082B61D073
:1020CC007B68DB69022B46D1334B00221A60FEF78A
:1020DC00B1FE386108E0FEF7ADFE02463B69D31A4B
:1020EC00022B01D903236DE0294B1B6803F000730D
:1020FC00002BF0D17B681B6AB3F5803F08D1244BD1
:10210C005B6823F400327B689B68214913434B6066
:10211C001F4B5B6823F474127B68196A7B685B6ADB
:10212C000B431B4913434B601B4B01221A60FEF7F8
:10213C0081FE386108E0FEF77DFE02463B69D31A4A
:10214C00022B01D903233DE0114B1B6803F00073F4
:10215C00002BF0D035E0104B00221A60FEF76AFE1F
:10216C00386108E0FEF766FE02463B69D31A022B83
:10217C0001D9032326E0064B1B6803F00073002BE8
:10218C00F0D11EE07B68DB69012B07D1012319E03C
:10219C000010024000700040600042420B4B5B6834
:1021AC00FB60FB6803F480327B681B6A9A4206D1A1
:1021BC00FB6803F470127B685B6A9A4201D00123BE
:1021CC0000E0002318461837BD4680BD00100240C1
:1021DC0080B584B000AF786039607B68002B01D18A
:1021EC000123D0E06A4B1B6803F007033A689A425C
:1021FC0010D9674B1B6823F0070265493B681343F2
:10220C000B60634B1B6803F007033A689A4201D0DA
:10221C000123B8E07B681B6803F00203002B20D07D
:10222C007B681B6803F00403002B05D0594B5B68DB
:10223C00584A43F4E06353607B681B6803F008035F
:10224C00002B05D0534B5B68524A43F460535360E8
:10225C00504B5B6823F0F0027B689B684D4913433D
:10226C004B607B681B6803F00103002B40D07B683C
:10227C005B68012B07D1474B1B6803F40033002B21
:10228C0015D101237FE07B685B68022B07D1414BA2
:10229C001B6803F00073002B09D1012373E03D4B45
:1022AC001B6803F00203002B01D101236BE0394BB7
:1022BC005B6823F003027B685B68364913434B6011
:1022CC00FEF7B8FDF8600AE0FEF7B4FD0246FB68C5
:1022DC00D31A41F28832934201D9032353E02D4B98
:1022EC005B6803F00C027B685B689B009A42EBD145
:1022FC00274B1B6803F007033A689A4210D2244B11
:10230C001B6823F0070222493B6813430B60204BE8
:10231C001B6803F007033A689A4201D0012332E0AC
:10232C007B681B6803F00403002B08D0194B5B6817
:10233C0023F4E0627B68DB68164913434B607B68CF
:10234C001B6803F00803002B09D0124B5B6823F4C5
:10235C0060527B681B69DB000E4913434B6000F035
:10236C0021F802460B4B5B681B0903F00F030A496B
:10237C00CB5C22FA03F3094A1360094B1B6818461D
:10238C00FEF716FD002318461037BD4680BD00BF72
:10239C00002002400010024024250008000000200C
:1023AC000400002080B487B000AF0023FB60002342
:1023BC00BB6000237B6100237B6000233B611E4BD1
:1023CC005B68FB60FB6803F00C03042B02D0082B4A
:1023DC0003D027E0194B3B6127E0FB689B0C03F013
:1023EC000F03174AD35C7B60FB6803F48033002B2C
:1023FC0010D0114B5B685B0C03F00103114AD35CEA
:10240C00BB607B680D4A03FB02F2BB68B2FBF3F3C3
:10241C007B6104E07B680C4A02FB03F37B617B6904
:10242C003B6102E0054B3B6100BF3B6918461C3722
:10243C00BD4680BC704700BF0010024000127A00FD
:10244C00182700082827000800093D0080B400AFB9
:10245C00024B1B681846BD4680BC7047000000202C
:10246C0080B500AFFFF7F2FF0246054B5B681B0A15
:10247C0003F007030349CB5C22FA03F3184680BD33
:10248C00001002403425000880B485B000AF78609D
:10249C000A4B1B680A4AA2FB03235B0A7A6802FBFD
:1024AC0003F3FB6000BFFB685A1EFA60002BF9D1E6
:1024BC0000BF00BF1437BD4680BC70470000002031
:1024CC00D34D6210F8B500BFF8BC08BC9E467047EF
:0C24DC00F8B500BFF8BC08BC9E46704775
:1024E80048656C6C6F204F4C4544210053544D3364
:1024F8003246313033204F4F502044656D6F000015
:102508004932433A205042362F50423700000000EB
:10251800416464723A2030783343000000000000C0
:10252800000000000102030406070809000000007B
:1025380001020304000000000000005F0000000723
:10254800000700147F147F14242A7F2A12231308FB
:10255800646236495522500005030000001C2241E0
:10256800000041221C0014083E081408083E080810
:1025780000503000000808080808006060000020CB
:10258800100804023E5149453E00427F4000426126
:102598005149462141454B311814127F10274545B2
:1025A80045393C4A494930017109050336494949C9
:1025B80036064949291E0036360000005636000006
:1025C800081422410014141414140041221408029F
:1025D80001510906324979413E7E1111117E7F4928
:1025E8004949363E414141227F4141221C7F4949A8
:1025F80049417F090909013E4149497A7F0808088C
:102608007F00417F41002040413F017F0814224163
:102618007F404040407F020C027F7F0408107F3ECD
:102628004141413E7F090909063E4151215E7F092A
:10263800192946464949493101017F01013F404076
:10264800403F1F2040201F3F4038403F631408147C
:102658006307087008076151494543007F414100FD
:1026680002040810200041417F00040201020440D6
:1026780040404040000102040020545454787F48F0
:102688004444383844444420384444487F385454F7
:102698005418087E0901020C5252523E7F08040465
:1026A8007800447D40002040443D007F10284400CD
:1026B80000417F40007C041804787C0804047838C2
:1026C800444444387C14141408081414187C7C08F6
:1026D8000404084854545420043F4440203C4040DB
:1026E800207C1C2040201C3C4030403C44281028C2
:1026F800440C5050503C4464544C4400083641004B
:1027080000007F000000413608001008081008008B
:1027180002030405060708090A0B0C0D0E0F10101A
:0427280001020000AA
:04272C00750100082B
:042730004D0100084F
:0C27340000127A001000000001000000FC
:0400000508000D459D
:00000001FF
